:100000000C940F050C9437050C9437050C943705A8
:100010000C9437050C9437050C9437050C94370570
:100020000C9437050C9437050C9437050C94370560
:100030000C9437050C9437050C9437050C94370550
:100040000C9437050C9437050C9437050C94370540
:100050000C9437050C9437050C9437050C94FA2D45
:100060000C9437050C9437050C9437050C94370520
:100070000C9437050C9437050C9437050C94370510
:100080000C9437050C9437050C9437050C94370500
:100090000C9437050C9437050C9437050C943705F0
:1000A0000C9437050C9437050C94370564616E6722
:1000B0006572210000727573742074726170007033
:1000C0006F69736F6E20747261700074656C657017
:1000D0006F7274207472617000736C656570206754
:1000E0006173006172726F77207472617000747254
:1000F0006170646F6F72007A7A7A2E2E2E006472AD
:1001000061696E6564006C6576656C20646F776EFE
:10011000006275726E656400677261636564006891
:10012000656C64007275737465640073746F6C65DC
:100130006E00706F69736F6E65640066726F7A65CA
:100140006E00616C72656164207769656C64007231
:100150006561647920676F0072656D6F7665640014
:100160006974206375727365640079756D6D7900CB
:100170006F6F70732E2E2E006C6576656C20757017
:10018000006469723F006E6F20736C6F7400736F50
:100190006D657468696E672068657265006E6F20B2
:1001A00068617070656E7300492063616E6E6F7474
:1001B0000077656C636F6D6521006E6F7468696EA2
:1001C000670063616E63656C006D697373696C656C
:1001D00000736C6565700066617374006368616EBE
:1001E000676500636C65617200636F6E6675736549
:1001F00000736C6F770074656C65706F7274007358
:1002000065617263680061726D6F7200736565008D
:1002100061646F726E00646578007374726F6E67EC
:100220000064616D61676500666F6F64006C69668C
:10023000650074656C65706F727400737465616CD1
:100240007468006D617000616E676572006372654D
:1002500061746500626C657373007363617265003D
:10026000736C6565700074656C65706F727400699D
:1002700064656E746966790061726D6F720077658E
:1002800061706F6E00686F6C640070726F7465638C
:1002900074006C6F6F6B007370656564006C6576DD
:1002A000697461746500636F6E6675736500692EAD
:1002B000646574656374006D2E64657465637400B1
:1002C00068616C6C7500626C696E64006C65766563
:1002D0006C00706F69736F6E00652E6865616C00ED
:1002E0006865616C00726573746F726500706F771A
:1002F00065720059656E646F72007A696E6300748E
:10030000696E0073696C76657200737465656C0064
:100310006E69636B656C006C6561640069726F6E19
:1003200000636F707065720062726F6E7A65006252
:100330007261737300746F70617A007361707068BA
:10034000697265007275627900706561726C006F28
:1003500070616C006F6E7978006761726E65740011
:10036000656D6572616C64006469616D6F6E6400D7
:10037000616D6574687973740061676174650052BA
:10038000454144204D450054454D4F5600464F4F82
:1003900042494500414E444F56410059554D205960
:1003A000554D00544841525200454C424942004488
:1003B000414959454E00584958415841004E522034
:1003C00039004A55594544005A454C474F00796514
:1003D0006C6C6F770077686974650076696F6C651F
:1003E00074007265640070696E6B006772657900F5
:1003F000677265656E006F72616E67650063796133
:100400006E00636C6561720062726F776E00626C81
:10041000756500626C61636B00616D62657200708E
:100420006C6174650062616E6465640073706C6910
:100430006E7400636861696E007363616C6500725D
:10044000696E67006C6561746865720064616767F6
:1004500065720073687572696B656E006172726FA8
:1004600077006461727400626F770073776F7264F3
:1004700000617865006D616365006D6F6C64006696
:100480006F6F6400676F6C6400D5F08D14A1C88134
:10049000CFD9F1AF20004229536176652671756985
:1004A00074004129476F204E657874004E6578745A
:1004B00020666C6F6F72200057696E004229436C92
:1004C0006561720053636F726500200024006279D9
:1004D000004B696C6C65640068656C6C666972657C
:1004E000006C75636B006C61636B206F6600467215
:1004F0006F7A656E00537461727665005F5F5F2985
:100500005C5C2F2F2929282F2F5C282F28285F5F3C
:100510005F002A7C20202020202020202020207CFA
:100520002A007C20202020202020202020207C0049
:100530007C20202020202020202020207C007C20C7
:1005400020204865726F202020207C002F20202052
:1005500020202020202020205C002F2020522E4907
:100560002E502E205C002D2D2D2D2D2D2D2D2D00CE
:1005700045783A0041433A0053743A0048673A00DC
:1005800048703A0041753A004C763A00202020200D
:10059000202020202020004229436F6E74696E7550
:1005A000650041294E65772047616D65005B4020FD
:1005B0007E5D2420526F6775650020430020450052
:1005C0002077686963683F000203030404050101A2
:1005D000010101020103010420202020202020200D
:1005E0002020202020202000202064726F702020F6
:1005F000202020202020200020207468726F772087
:10060000202020202020200020207573652020201D
:100610002020202020202000B101A8019D018E0172
:1006200086018101780170016A01600158014F0162
:1006300042013B0132012B0124011F01180111016C
:100640000601FE00F700EE00E300D900CB00BF007A
:10065000B500B400AC0084047F047A04750471040E
:100660006B04670462045C0453044C0444043F04B8
:10067000390433042C0425041F04190413040E0444
:1006800008040204FD03F603F003EB03E603E203B0
:10069000DB03D503CE03C803C203BD03B603AF0318
:1006A000A903A3039B0394038D0387037F037903AB
:1006B000700368036003590354034F034903440361
:1006C0003B0335032F03280321031C0317031003E7
:1006D0000A030303FF02FA02F302ED02E502E0025D
:1006E000D902D202CC02C602C002B702AE02A602F2
:1006F0009D02970292028A0285027E0278026F02B0
:10070000660260025A0254024D02470243023B0253
:1007100032022D02280221021A02160210020C02D5
:100720000602FF01F601F101E901E301DC01D70155
:10073000D101C901C201BA014B4542534849524F48
:100740005A4C4351414E594654575058554D5647AF
:100750004A44020304050606070A01043C0200831A
:100760000B0103410200020A01033C0200250801BB
:1007700003320200030F0205430300030F0000448D
:1007800005000413020A460A000319010546050A7A
:1007900003150107450800031900004B15640420E8
:1007A0000513550F0A051E030F4E141403190000FC
:1007B000641400031900004B276404230312503211
:1007C0001405490000505B00014B051C4B7D2103C3
:1007D0002D02104B3700054C0514507832652A0461
:1007E000184B6E00065A042855C821036107255589
:1007F000FA190337021255041203730A3255140A08
:1008000083840732641E000591083C64325A02005A
:100810000A0F18213F5D60642A3A295B213F3D2F72
:100820002C00050A14192328323C414B555A5F64A9
:1008300000050A0F14232D37414B555A6464640593
:1008400008000000000000006F6F000007000700B4
:10085000147F147F14042E6B3A102313086462363D
:100860007F4936500008070300001C3E4100413E0E
:100870001C00002A1C7F1C2A08083E080800807003
:100880003000080808080800003030002010080474
:10089000023E7F497F3E00427F7F406271594F4652
:1008A0002241497F3618147E7F102F4F4979313EFF
:1008B0007F4979300161791F07367F497F36064FBE
:1008C000497F3E0000363600004034000000081426
:1008D0002241141414141400412214080002696FF8
:1008E000063E7F41595E7E7F097F7E7F7F497F364E
:1008F0003E7F4141227F7F417F3E7F7F4949417F4B
:100900007F0909013E7F41797A7F7F087F7F00411F
:100910007F7F4141417F3F017F7F1C36637F7F4066
:1009200040407F7E0C7E7F7F7E1C3F7F3E7F417FED
:100930003E7F7F090F063E7F613F5E7F7F097F76A6
:10094000264F49793200017F7F013F7F407F3F1F63
:100950003F603F1F7F3F103F7F777F087F77037F98
:1009600078070371794D4743007F7F4141020408B6
:10097000102041417F7F00040201020440404040BA
:100980004000030708002074547C787F7F447C3843
:10099000387C444428387C447F7F387C545C180081
:1009A000047E7F0518BCA4FC7C7F7F08787000441F
:1009B0007D7D408080FD7D007F7F386C4400417FDD
:1009C0007F407C7810787C7C7C047C78387C447C0C
:1009D00038FCFC243C18183C24FCFC7C7C080404F7
:1009E000085C54742000047E7E043C7C407C7C1CAB
:1009F0003C403C1C7C3C103C7C6C7C107C6C1CBCEB
:100A0000A0FC7C4464745C4C00083E774100007795
:100A1000000041773E080002010204025F2E11240B
:100A20001FBECFEFDAE0DEBFCDBF11E0A0E0B1E046
:100A3000EEEDFEE602C005900D92A03BB107D9F79E
:100A400029E0A0EBB1E001C01D92A33DB207E1F7A0
:100A500015E0CFE0D5E004C02197FE010E944437A5
:100A6000CE30D107C9F70E947D2E0C946D370C94BF
:100A7000000090E0EEEBF5E091119FEF8FEF919386
:100A80009193919391938150D0F708959091CE09CD
:100A9000982329F49091CD09982381E009F480E00E
:100AA000089564E670E080E090E0AB01FC010E94F4
:100AB0006D0541505109E109F10928F068517C4F59
:100AC0008F4F9F4FF6CFAB01FC010E946D0564175D
:100AD00075078E079F07C8F30895AAE4B4E02FB7FF
:100AE000F8947D918D919C9166B52FBFA89B05C010
:100AF0006F3F18F47F5F8F4F9F4F22E0660F771F85
:100B0000881F991F2A95D1F70895EEEBF5E080E054
:100B1000A0E0B8E000800EBC8111012C1197A0FD6F
:100B2000FDCF0192B9F70DB40895AF92BF92CF9265
:100B3000DF92EF92FF920F931F93CF93DF936C019D
:100B40007B018B01040F151FEB015E01AE18BF087E
:100B5000C017D10759F06991D601ED91FC91019030
:100B6000F081E02DC6010995892B79F7C501DF9148
:100B7000CF911F910F91FF90EF90DF90CF90BF909A
:100B8000AF900895FC010E946D05319728F06851DF
:100B90007C4F8F4F9F4FF9CFAB01FC010E946D0539
:100BA000641775078E079F07C8F3089508954F923D
:100BB0005F927F928F929F92AF92BF92CF92DF927D
:100BC000EF92FF920F931F93CF93DF93DC01169662
:100BD0009C9116976A30F1F415968C91159714969E
:100BE0008C93149719968C911997980F16969C933D
:100BF00081E090E0DF91CF911F910F91FF90EF90F6
:100C0000DF90CF90BF90AF909F908F907F905F903C
:100C10004F90089560526F3508F0E4C0EFE3F8E0BC
:100C20003491E0E4F8E0E491032F10E041E458E06F
:100C30006623E1F0C1E0D0E08E2F877011F4D0E0A0
:100C4000C0E04E2F4695469546954C0F5D2F511DA1
:100C5000409FE001419FD00D509FD00D11246C9F0B
:100C6000A0016D9F500D11244F5B574F14962C918E
:100C70001497622F022E000C770B060F171F101609
:100C800011060CF0AFC09F5FC92F092E000CDD0BC1
:100C90007E01EE0EF11C1E141F040CF0A3C0C03424
:100CA000D1050CF09FC04115510509F49BC0977008
:100CB0007E01D7FF03C087E0E80EF11C83E0F594C6
:100CC000E7948A95E1F7FE2DD7FF04C0992311F030
:100CD000FFEFFE0DCC27DD27C61BD70B77FD02C02B
:100CE000D0E0C0E0003811050CF473C080E8821B2E
:100CF0008C1B0F2F0F2E000C110BD02ED094FF3F0A
:100D00000CF0D12CEE24E3942E2F277009F4E12C63
:100D1000E695E695E695EE0D0E0F111D09301105CD
:100D200014F0E8E0EF1B9D2C9F0E192D20E8120314
:100D3000700111246E0D7F1D6C0F7D1F092F092E70
:100D4000000C110BC32EC81A3D9DC00DD11D1124DE
:100D50004C0F5D1F2FEF30E0092E02C0220F331F12
:100D60000A94E2F720953095822E732E3E2F3F0F86
:100D7000C80EDD24DD1C3915A9F1EB01C254DA4F90
:100D8000F12CE12CE81640F5FA01EE0DFF1DE4917F
:100D9000F0E02F01002E02C0440C551C0A94E2F72B
:100DA00097FC04C02881282124292883992361F0F5
:100DB000E6E0E9154CF05E01F0E8AF0EB11CF5017C
:100DC0002081272125292083FFEFEF1AFF0A219692
:100DD000D9CF832F8C1B8DCF93944C0D5D1D605804
:100DE0007F4FC9CF18969C9118979B5F14968C9152
:100DF0001497890F14968C93FBCE682F8EEB99E095
:100E00000C94D7050F931F93CF93DF938C01D0E001
:100E1000C0E0F801EC0FFD1F6491662341F08EEBFA
:100E200099E00E94D705892B11F02196F2CFCE01CF
:100E3000DF91CF911F910F910895089590E080E088
:100E400008952FEF280F253020F49BEF980F892F5E
:100E500008952AEF280F2930A0F021EF280F233022
:100E600090F0823191F02DEE280F223080F0853104
:100E700081F02AEE280F293070F08F3140F398E08E
:100E8000E6CF91E0E4CF93E0E2CF94E0E0CF95E0CD
:100E9000DECF96E0DCCF97E0DACFCF93DF9300D0C0
:100EA00000D01F92CDB7DEB747ED52E0FA0160E007
:100EB0008FEF9081911102C080836F5F359623E0A0
:100EC000E935F207B1F787ED92E09C01A3E0243504
:100ED0003A0719F1DC01EC91D90115967C917E1746
:100EE000C8F475E0FC01DE01119601900D927A952F
:100EF000E1F775E0F9013596DC0101900D927A95E4
:100F0000E1F775E0FE013196D901159601900D9239
:100F10007A95E1F72B5F3F4FD9CF059673E089357E
:100F2000970799F6FA0180818F3F09F410824B5F91
:100F30005F4FF3E049355F07A9F784E1861B0F9007
:100F40000F900F900F900F90DF91CF91089595E043
:100F5000899FF0011124E952FD4F10821182128203
:100F600013821482E9E3F1E08281815082830C9440
:100F70004D07EEE4F4E080E09081992321F08F5F4B
:100F800035968832C9F7089595E0899FF0011124BC
:100F9000E25BFB4F10821182128213821482089549
:100FA000982F990F890F880F8F5FEEEBF9E08583FB
:100FB0008483660F660F660F615066830895809183
:100FC0003A01843070F081E08093C3098093C209B4
:100FD0008FEF8093C4098091F4019091F5010C94F6
:100FE000020781E08093C3098093C20987E3F1CFB0
:100FF0000F931F93CF93DF9380914101811131C0F3
:10100000D0E0C0E010E000E0809139018C0F9D2F0E
:10101000911D019760913A01600F712F711D615010
:101020007109FC0123E0EE0FFF1F2A95E1F7E15D56
:10103000FD4FE60FF71F20813FEF320F363018F0DB
:101040002F512C3428F40E94D0078EE20E94FD0616
:101050000F5F1F4F03301105B9F62196C330D1053C
:1010600089F660913A0170E08091390190E00E9428
:10107000D00780E4DF91CF911F910F910C94FD0672
:101080007F928F929F92AF92BF92CF92DF92EF9218
:10109000FF920F931F93CF93DF930FE212E0D0E004
:1010A000C0E0CC24C394D12C8C2F8770560102C091
:1010B000AA0CBB1C8A95E2F7EC2EE694E694E69423
:1010C00048E0E49E70011124912C812C8AE0782E56
:1010D000B401CE010E94D007F701E80DF91DEA50D6
:1010E000FE4F808190E08A219B21892B69F1F801D4
:1010F000E80DF91D2081222339F18FEF820F863010
:1011000028F081EE820F8C3408F03EC080913901C6
:1011100030913A01E8E08E9FC0011124815D9D4F1E
:10112000830F911DFC018081672D0E941637392F96
:10113000E92FF0E0E352FE4F8081811125C0822F1C
:101140000E9416378EE2391380E20E94FD06FFEFFF
:101150008F1A9F0A48E08416910409F0B9CF2196AE
:10116000085F1F4FC531D10509F09ECFDF91CF91A8
:101170001F910F91FF90EF90DF90CF90BF90AF90B5
:101180009F908F907F90089583E22830F1F285EF51
:10119000820F8630F0F08BEE820F8630E0F081E92E
:1011A000820F8C34D0F081E4820F8830C0F087E366
:1011B000820F8630B0F08DE2820F863040F083E2FD
:1011C000820F863070F0275E263008F0BDCF8CE7A6
:1011D000BCCF85E2BACF8BE2B8CF8EE5B6CF8FE336
:1011E000B4CF8DE2B2CF282F26952695269598E08C
:1011F000299F900111242A503E4FF901E60FF11D5D
:10120000282F277081E090E0A0E0B0E004C0880FB4
:10121000991FAA1FBB1F2A95D2F72081822B80839A
:101220000895CF93DF93CDB7DEB72D970FB6F8941F
:10123000DEBF0FBECDBF9DE0EBE6F1E0DE01119613
:1012400001900D929A95E1F790E070E041111AC07B
:101250008C0F9D1FDC01EC91E60FF72FF11DEE0FB7
:10126000FF1FEA5AF94F259134912093F4013093EE
:10127000F5012D960FB6F894DEBF0FBECDBFDF91FE
:10128000CF910895FE01E80FF91FE58105972EE043
:10129000289FD001299FB00D1124AF5FBE4FA60F2C
:1012A000B71F8C91E80FFF27FF1FD9CFE82FF0E081
:1012B000EE0FFF1FE85EF94F859194919093F50131
:1012C0008093F4010895CF9380913A01482F50E024
:1012D000209139012150330B83E0220F331F8A956F
:1012E000E1F764E070E0DA01A25DBD4F4F5F5F4F50
:1012F000C8E06150710939F1FD01E20FF31FCF0120
:10130000821B930B8F52924048175907CCF0808173
:1013100091EE980F9C3418F4805B808309C093E2AF
:10132000980F963010F4885CF8CF843E19F4C0838F
:101330003196E5CF99E1980F9630D0F7825DEDCFE9
:10134000285F3F4FD6CFCF910895CF938091CD099D
:101350008093CE090E94572E8093CD0980E20E948F
:101360004605C82F80E80E9446058111C2E080E44E
:101370000E9446058111C3E080E10E94460581116B
:10138000C4E088E00E9446058111C5E084E00E9427
:101390004605811108C0CC23C9F28DE10E9456098F
:1013A0008C2FCF910895C6E0F8CF262F40914F01A2
:1013B00050915001609151017091520190E0B0E064
:1013C000A0E084179507A607B70734F020930F0213
:1013D00082E080930E020895481B590B6A0B7B0B29
:1013E00040934F015093500160935101709352010B
:1013F0000895CF92DF92EF92FF920F931F93CF93B6
:10140000DF93282FD62FCEEFC80F8170C89FC02D35
:101410001124422F4150550BCA0162E070E00E9436
:1014200030372350289F202D1124309139016091AD
:101430003A0170E0CC2E0C2E000CDD08022F022E9B
:10144000000C110BF801E60FF11DA601430F511D11
:10145000A3E0440F551FAA95E1F7CA0187599C4F95
:101460007C01EE0EFF1ED7019C919923B1F03C0F39
:10147000620F892F90E0982F8827B5E16B9F800D30
:10148000911D1124830F911DDF91CF911F910F9119
:10149000FF90EF90DF90CF900895415D5D4FE40F96
:1014A000F51F40814150473C20F73C0F620F7F5FA2
:1014B0007D13C8CFDECF382FE7EDF2E091E080E07A
:1014C000208122952F70231306C0248124FF03C09E
:1014D000615009F4892F35969F5F953189F70895FA
:1014E000CF93DF93D82F61E087E00E945B0AC82F7B
:1014F0008823A9F0282F2150330BC90125E0289F0C
:10150000F001299FF00D1124E952FD4FE081EF70A9
:10151000F0E0EF5FFE4FC1E0848D8D13C0E062E02C
:1015200087E00E945B0A882399F08150990B25E09F
:10153000289FF001299FF00D1124E952FD4FE08111
:10154000EF70F0E0EF5FFE4F848D8D1301C0CF5F31
:101550008C2FDF91CF910895CF93DF93C82F61E057
:1015600084E00E945B0A882331F12C2F2150330B39
:10157000C90125E0289FE001299FD00D1124C952FF
:10158000DD4F8C8183FD17C089E00E94700A8111B4
:1015900012C0E881EF70F0E0EE5AF84FE4918A81D2
:1015A000282F082E000C330BE20FF32FF11D32977A
:1015B00014F081508A83DF91CF91089595E0899F3F
:1015C000D0011124A952BD4FEC91EF70F0E0EF5F14
:1015D000FE4F848D843019F0863059F008951296AC
:1015E0009C9180914A01699F800D112480934A014A
:1015F000089512969C9180914901699F800D112454
:10160000809349010895FF920F931F93CF93DF9327
:10161000D82F85E0D89F8001112409521D4FF80171
:10162000C481C4FF14C089E0C6FD3DC0CF7EC48321
:101630008AE00E945609F801808180576FEF80315F
:1016400020F1DF91CF911F910F91FF90089580813C
:1016500082958F708330A8F38530F8F0873089F752
:1016600061E087E00E945B0AF82E62E087E00E945A
:101670005B0AF89EC0011124892BA1F4C261F80114
:10168000C4838BE00E94560961E08D2FDF91CF91DA
:101690001F910F91FF900C94DE0A61E00E945B0A9B
:1016A000882341F08CE0DF91CF911F910F91FF9043
:1016B0000C945609C261F801C4838BE0F4CF8F9279
:1016C0009F92AF92BF920F931F93CF93DF93CDB7AB
:1016D000DEB7A1970FB6F894DEBF0FBECDBF19A23B
:1016E000423008F44AE08E010F5D1F4F842E912C8A
:1016F000B12CA12CA50194010E94E536E62FB90179
:10170000CA01EA3044F5E05DD801EE938D01232B48
:10171000242B252B79F790E080E0109769F0FD01EC
:1017200001900020E9F73197AF014A1B5B0BBD0127
:101730008EEB99E00E949505A1960FB6F894DEBF56
:101740000FBECDBFDF91CF911F910F91BF90AF9092
:101750009F908F900895E95CD7CF682F70E090E05C
:1017600080E04AE00C945F0BCF92DF92EF92FF9201
:10177000CF93DF9397FF19C06B017C018DE20E942C
:10178000FD06EC0166277727CB016C197D098E09D0
:101790009F094AE00E945F0B8C0F9D1FDF91CF9144
:1017A000FF90EF90DF90CF9008954AE0DF91CF91C6
:1017B000FF90EF90DF90CF900C945F0BBC01990FDE
:1017C000880B990B0C94B40BCF92DF92EF92FF929F
:1017D0006B017C01C114D104E104F10441F00E94C9
:1017E0004536A70196010E94B3366B017C01C70103
:1017F000B601FF90EF90DF90CF900895CF92DF92E7
:10180000EF92FF926B017C01C216D306E406F50647
:1018100064F4CA01B9016C197D098E099F090E94FF
:10182000E40BC60ED71EE81EF91EC701B601FF90D5
:10183000EF90DF90CF9008952F923F924F925F925A
:101840006F927F928F929F92AF92BF92CF92DF92D0
:10185000EF92FF920F931F93CF93DF9301E314E076
:10186000D0E0C0E084E0282E312C9AE0C92ED12CA3
:10187000E12CF12CF80180818054803208F040C0C6
:10188000FE01EF5DFB4F808190913901891B990B1F
:1018900097FF03C0919581959109FE01EF5EFB4F83
:1018A000208130913A01231B330B37FF03C0319560
:1018B00021953109820F931F039714F50E94453635
:1018C0004B015C0180E00E94700A682F70E06F5F3E
:1018D0007F4FC1010E9430372B01770F66087708D0
:1018E000C501B401A70196010E94B33664157505C0
:1018F000860597052CF4F80180818F71805E8083C6
:1019000021960F5F1F4FC031D10509F0B3CFDF9192
:10191000CF911F910F91FF90EF90DF90CF90BF90EC
:10192000AF909F908F907F906F905F904F903F907F
:101930002F900895CF93C82F0E94453624E630E0BB
:1019400040E050E00E94B3368FE0C89FD0011124E0
:10195000AF5DB74F80E09EE0C99FA00111244F5FAB
:101960005E4FFA01E80FF11D208130E0FD01E20F2A
:10197000F31FE4916E1738F0F9013196EA0FFB1F5F
:10198000E4916E1710F08F5FECCFCF9108952F92F6
:101990003F924F925F926F927F928F929F92AF92FF
:1019A000BF92CF92DF92EF92FF920F931F93CF934C
:1019B000DF9300D000D000D01F92CDB7DEB7162F36
:1019C000682F70E07F836E83CB0133E0880F991F0F
:1019D0003A95E1F7FC01E15DFD4F7F01242E312CAA
:1019E000622F70E07C836B8344E1842E912CA12CC8
:1019F000B12C56E0452E512C612C712C7EE1700FDC
:101A00007D838E819F8128163906C4F1C12ED12C89
:101A1000EB81FC81EC15FD053CF1B7016C0D7D1DE2
:101A20007A8369830830E0F40E944536A501940169
:101A30000E94B336672B682B692B91F40E944536C0
:101A4000A30192010E94B3368D817AE0769F800DCA
:101A50001124E981FA818083FFEFCF1ADF0AD8CF02
:101A6000E981FA810083F8CF6E817F816F5F7F4FBC
:101A70007F836E8378E0E70EF11CC3CF27960FB605
:101A8000F894DEBF0FBECDBFDF91CF911F910F91B4
:101A9000FF90EF90DF90CF90BF90AF909F908F908E
:101AA0007F906F905F904F903F902F9008951F937D
:101AB000CF93DF9380912E02D0E0C0E081110BC064
:101AC0000E94453623E030E040E050E00E94B3360B
:101AD000EB01CC0FDD1FFE01E85DFD4F8081811120
:101AE00001C02196FE01EE5DFD4F1081FE01E45E16
:101AF000FD4F6081062E000C770B611B710917FDED
:101B000073956F5F7F4F072E000C880B990B0E9417
:101B1000E40B160F10933901FE01EA5EFD4F1081B0
:101B2000C05FDD4F6881062E000C770B611B7109C9
:101B300017FD73956F5F7F4F072E000C880B990B75
:101B40000E94E40B160F10933A01E091390188E0EE
:101B5000E89FF0011124E759FC4FE10FF11DA0812E
:101B6000AA2329F0B0E0A05DBB4F1C921082DF9148
:101B7000CF911F910895CF92DF92EF92FF928091C3
:101B80005B0190915C01A0915D01B0915E010196B5
:101B9000A11DB11D80935B0190935C01A0935D0139
:101BA000B0935E01409157015091580160915901E5
:101BB00070915A018091630190916401A091650137
:101BC000B0916601481759076A077B070CF456C0A5
:101BD00080913F01853108F051C086E00E9456098E
:101BE00080913F018F5F80933F01809163019091CD
:101BF0006401A0916501B0916601880F991FAA1F29
:101C0000BB1F8093630190936401A0936501B0931F
:101C100066010E94453628E030E040E050E00E9436
:101C2000B3366D5F862F90E0B0E0A0E040914F01A9
:101C3000509150016091510170915201480F591F0C
:101C40006A1F7B1F40934F015093500160935101D5
:101C5000709352014091530150915401609155018C
:101C600070915601840F951FA61FB71F80935301D3
:101C700090935401A0935501B0935601C0904F0129
:101C8000D0905001E0905101F090520180915301A9
:101C900090915401A0915501B0915601C816D906F2
:101CA000EA06FB069CF520913F0186E190E0821B4D
:101CB000910963E070E00E9430379B012F5F3F4F36
:101CC000032E000C440B550B60915B0170915C017D
:101CD00080915D0190915E010E94B336672B682B65
:101CE000692BA1F482E00E94700A9FEFC91AD90AF9
:101CF000E90AF90AC80ED11CE11CF11CC0924F017F
:101D0000D0925001E0925101F09252018091400135
:101D1000882319F0815080934001809141018823EC
:101D200019F081508093410180914201882319F07C
:101D300081508093420180914301882319F08150A2
:101D40008093430180914401882319F0815080934E
:101D5000440180914701882319F081508093470105
:101D600081E00E94700A882371F00E9445362CE0C1
:101D700030E040E050E00E94B336672B682B692BBF
:101D800011F40E94570D83E00E94700AC0905F0119
:101D9000D0906001E0906101F090620191E0C91A79
:101DA000D108E108F108C80ED11CE11CF11CC09259
:101DB0005F01D0926001E0926101F092620161E006
:101DC00087E00E945B0A882389F080915B0180FD97
:101DD0000DC081E0C81AD108E108F108C0925F0186
:101DE000D0926001E0926101F092620162E087E0CE
:101DF0000E945B0A882331F160915B0170915C0164
:101E000080915D0190915E0122E030E040E050E081
:101E10000E94B336613071058105910599F4809176
:101E20005F0190916001A0916101B0916201019701
:101E3000A109B10980935F0190936001A0936101B2
:101E4000B093620180915F0190916001A091610166
:101E5000B0916201CC97A105B105DCF0609153010E
:101E600070915401809155019091560124E030E029
:101E700040E050E00E94B33680914F0190915001B4
:101E8000A0915101B0915201281739074A075B0709
:101E90001CF08EE10E94560980915F0190916001D3
:101EA000A0916101B0916201181619061A061B066D
:101EB0002CF010920F0282E080930E02F12CE12CA4
:101EC0008AE00E94700A90E0880F991FE816F906D0
:101ED00034F40E9463099FEFE91AF90AF1CFFF90E9
:101EE000EF90DF90CF9008952F923F924F925F92A4
:101EF0006F927F928F929F92AF92BF92CF92DF921A
:101F0000EF92FF920F931F93CF93DF9386E1E82E1A
:101F100085E0F82ED0E0C0E022242394312C28E084
:101F2000422E512C612C712C8C2F8770410102C0E4
:101F3000880C991C8A95E2F7CC2EC694C694C69458
:101F400048E0C49E6001112410E000E0F801EC0DAF
:101F5000FD1DEA50FE4F808190E088219921892B58
:101F600031F15701A00EB11ED5018C918823F9F0F3
:101F7000B801CE010E94D00780914201811141C079
:101F8000F50120812150330BF5E0F29FC001F39F52
:101F9000900D1124825B9B4FDC01EC91E295EF7078
:101FA000E150FF0BE85EF74F84910E94FD060F5F42
:101FB0001F4F0830110551F62196B8E0EB0EF11CC9
:101FC000C531D10509F0B0CF60913A0170E0809140
:101FD000390190E00E94D00780E4DF91CF911F91FA
:101FE0000F91FF90EF90DF90CF90BF90AF909F90B8
:101FF0008F907F906F905F904F903F902F900C94B8
:10200000FD060E944536A30192010E94B336E1E02D
:10201000E60FC6CFCF92DF92EF92FF920F931F93FE
:10202000CF93DF93C42F98E0899F800111240A5E2B
:102030001A4F060F111DF8018081811153C00E94B3
:10204000B90791E0980FF8019083082F10E095E010
:10205000899FF0011124E25BFB4F81E081831282B2
:1020600013821482C11117C00E94453624E630E065
:1020700040E050E00E94B3368C2F90E0FC01E15F1D
:10208000F74FE491CF5F6E17B8F3FC01E05FF74FB5
:10209000E4916E1788F7C150C83020F5EC2FF0E0BE
:1020A000EC5AFF4E0C9444375C107B10B110281191
:1020B0006E1180118D11F21185E0809FE001819FEA
:1020C000D00D1124C25BDB4F80E188830E9445362E
:1020D00024E630E040E050E00E94B33680913C01BD
:1020E000680F6983DF91CF911F910F91FF90EF905F
:1020F000DF90CF9008950E94453625E030E040E023
:1021000050E00E94B336672B682B692B01F585E000
:10211000809FF001819FF00D1124E25BFB4F81E273
:1021200080830E94453625E0209FE001219FD00D4D
:102130001124C25BDB4F22E030E040E050E00E941F
:10214000B3366F5F69838C8180688C83CBCF85E0E9
:10215000809FF001819FF00D1124E25BFB4F80E234
:10216000DFCF0E94453628E030E040E050E00E949A
:10217000B33685E0809FE001819FD00D1124C25BC2
:10218000DB4F80E3860F8883643060F581E08983CC
:102190000E94453626E030E040E050E00E94B33631
:1021A00061112EC00E94453623E030E040E050E04F
:1021B0000E94B336C1E0C60F6C2F70E06F5F7F4F97
:1021C000072E000C880B990B0E94E40B85E0809F82
:1021D000F001819FF00D1124E25BFB4F6283C61B6F
:1021E000C38380CF0E9445362DE030E040E050E0D0
:1021F0000E94B3366D5F69838C8180688C83C8CF01
:10220000613009F06FCF0E94453623E030E040E0B6
:1022100050E00E94B336C1E0C60F6C2F70E06F5FD4
:102220007F4F072E000C880B990B0E94E40B85E072
:10223000809FF001819FF00D1124E25BFB4F862F00
:10224000819582836C1B63838481806484834ACFFD
:102250000E94453627E030E040E050E00E94B3366F
:10226000F62E85E0809FE001819FD00D1124C25B96
:10227000DB4F605C688381E089830E94453626E0FD
:1022800030E040E050E00E94B336611117C00E9478
:10229000453623E030E040E050E00E94B3366F5F07
:1022A0006A83F1101FCF85E0809FF001819FF00DC0
:1022B0001124E25BFB4F84818860C8CF613089F7CD
:1022C0000E94453623E030E040E050E00E94B33603
:1022D00060956A838C8180648C83E3CF80E00E9468
:1022E0009A0C95E0909FF001919FF00D1124E25B14
:1022F000FB4F805B808381E0818384818068A6CFEF
:1023000081E00E949A0C95E0909FF001919FF00D62
:102310001124E25BFB4F805AEDCF0E9445362BE043
:1023200030E040E050E00E94B33685E0809FE0015D
:10233000819FD00D1124C25BDB4F80E7860F88831D
:1023400081E08983E62FF0E0EF5FFE4F848D8430DB
:10235000D1F030F4813009F0C5CE8C818064F5CEA7
:10236000863089F0873009F0BDCE0E94453622E0E4
:1023700030E040E050E00E94B336672B682B692BB9
:1023800009F0B0CEEACF0E94453622E0C22ED12C11
:10239000E12CF12CA70196010E94B336611111C006
:1023A0000E94453625E0209FE001219FD00D112499
:1023B000C25BDB4FA70196010E94B3366F5F6A8351
:1023C00091CE0E94453625E0209FE001219FD00D4F
:1023D0001124C25BDB4FA70196010E94B3366095C2
:1023E0006A83BBCF0E94453625E0209FE001219FF4
:1023F000D00D1124C25BDB4F2AE030E040E050E01A
:102400000E94B3366058688381E089830E94453614
:1024100024E030E040E050E00E94B3366D5FCFCF63
:10242000CF92DF92EF92FF920F931F93CF93DF93A0
:10243000E82EF62ED42E60913C0123E0260F665044
:1024400066310CF065E167FD60E02C310CF02AE1AB
:10245000022E000C330B440B550B062E000C770B91
:10246000880B990B0E94FE0BC62E27E0629F80010D
:102470001124075A184FE8012696FE0164916F70E7
:10248000633079F030F46130D1F06230C1F060E057
:1024900016C0653009F43FC090F06630C1F763E0C4
:1024A0000EC00E94453622E030E040E050E00E943D
:1024B000B336672B682B692B09F43BC061E08E2D86
:1024C00090E0FC01EF5CFB4F6295660F607E6C0D47
:1024D0006083F8010491FC01EC51FE4F0083FE0182
:1024E000C491875A9C4FC07FC860FC01C083F8E04C
:1024F000FF9EC001112487599C4F8D0D911DE394BF
:10250000FC01E082DF91CF911F910F91FF90EF903E
:10251000DF90CF9008950E94453622E030E040E001
:1025200050E00E94B336672B682B692B39F664E0C4
:10253000C6CF62E0C4CFCF93DF93C82FD0E0FE01B7
:10254000E75AFC4F808186FF09C088E00E94700A2C
:10255000811104C080914601813069F5CF5CDB4F69
:10256000E88180EA8E0F909142019923D9F0803260
:1025700068F40E94453629E030E040E050E00E94D7
:10258000B336FB01E85EF74F849111C00E944536D7
:102590002AE130E040E050E00E94B336FB01E85C05
:1025A000F84FF2CFEF71F0E08032C8F78AE2DF91A6
:1025B000CF910C94FD06DF91CF910895BF92CF92F9
:1025C000DF92EF92FF920F931F93CF93DF93C1E1BE
:1025D000D4E001E214E091E3E92E94E0F92ED12C4D
:1025E0002AE0C22EBE2CB094F70181917F01803287
:1025F00008F45AC0F801208130E080914501811132
:1026000064C08091390140913A01F8E08F9FC00188
:102610001124815D9D4F840F911DFC014081842F09
:102620006C2D0E941637A92FE92FF0E0E352FE4FE0
:10263000808181111BC04830C9F0488150E0F90108
:1026400083E0EE0FFF1F8A95E1F7E15DFD4FE40F98
:10265000F51F80810E941637A91308C0BA01C9016D
:102660000E94D0078B2D8E0D0E949B12F801808155
:1026700090E02091390130E0281B390B2F5F3F4F4C
:102680002330310588F4688170E020913A0130E010
:10269000261B370B2F5F3F4F2330310528F40E9454
:1026A000D0078D2D0E949B122196D3940F5F1F4F50
:1026B000F0E1DF1299CFDF91CF911F910F91FF9041
:1026C000EF90DF90CF90BF900895688170E0C901CE
:1026D000E6CF0E94390580914101811120C00E94FE
:1026E00040080E94F8070E94740F0E94DE1285E0E5
:1026F0000E9456090E94DF070E9485050E94A509D5
:1027000090914001992351F00E94453624E030E039
:1027100040E050E00E94B33681E0860F08950E94A9
:10272000F807E5CF1F93CF93DF93C82F162F809123
:102730004101811106C00E9440080E94740F0E944E
:10274000DE12D0E0FE01EF5EFB4F608170E0FE0123
:10275000EF5DFB4F808190E00E94D00780914101A6
:1027600081110FC0C75ADC4F888186FD0AC0812FB6
:102770000E94FD060E948505DF91CF911F910C9468
:10278000510580E2F5CFCF93C82F8091410181118F
:1027900006C00E9440080E94740F0E94DE126091E1
:1027A0003A0170E08091390190E00E94D0078C2FAF
:1027B0000E94FD060E948505CF910C9451052F9231
:1027C0003F924F925F926F927F928F929F92AF92C1
:1027D000BF92CF92DF92EF92FF920F931F93CF930E
:1027E000DF93CDB7DEB729970FB6F894DEBF0FBEE3
:1027F000CDBF11E2212E14E0312E01E1602E04E064
:10280000702E89E5482E83E0582E01E314E095E010
:10281000892E912CA12CB12CD8018C918111B8C09A
:102820000E94453620E830E040E050E00E94B33698
:10283000672B682B692B09F081C0809139012091A9
:102840003A01B8E08B9FC0011124815D9D4F820F3A
:10285000911DFC01808190912E02F12CE12C9111AF
:102860001CC08150990B6AE070E00E9430379C01D7
:1028700062E070E00E943037281B390B37FF02C03E
:102880002F5F3F4F35952795C901019663E070E0B2
:102890000E9430377C01EE0CFF1CF701E85DFD4F14
:1028A0008081811103C0FFEFEF1AFF0AF701EE5D8F
:1028B000FD4FD080F701E45EFD4F6081062E000CD5
:1028C000770B6D197109D7FC73956F5F7F4F072EDA
:1028D000000C880B990B0E94E40B6D0DD1016C93D9
:1028E000F701EA5EFD4FD080F701E05FFD4F6081A8
:1028F000062E000C770B6D197109D7FC73956F5F6D
:102900007F4F072E000C880B990B0E94E40B4D2D76
:10291000460FF3014083D1016C91B8E06B9FF00149
:102920001124E759FC4FE40FF11D8081811106C08D
:10293000842DE9E5F3E08E1B0E9410120F5F1F4FFC
:102940007FEF271A370A8FEF681A780A9FEF491A24
:10295000590AA1E4B4E0A017B10709F05DCF2996A8
:102960000FB6F894DEBF0FBECDBFDF91CF911F91A0
:102970000F91FF90EF90DF90CF90BF90AF909F901E
:102980008F907F906F905F904F903F902F90089521
:10299000D2018C9182FF04C090915B0190FDCECF5B
:1029A000881F8827881F8F5FE82FF0E0FD83EC8366
:1029B0001B821A8281E021E334E0821B800F8F8327
:1029C000D8018C9190EC980F903A08F416C28F7150
:1029D000853109F01CC18091390120913A01B8E09C
:1029E0008B9FC0011124815D9D4F820F911DFC01C1
:1029F0002081283009F44DC1D1018C91F30130813F
:102A0000F8E08F9FC0011124815D9D4F830F911DC0
:102A1000DC018C91FAE0FF2E6F2D0E941637392FC2
:102A2000822F0E941637391334C1F201808183FF4F
:102A300030C18FE30E94C31382E10E945609F092D5
:102A40004001D2018C91877F8C93D2018C9185FFBC
:102A500018C00E94453623E030E040E050E00E947C
:102A6000B336672B682B692B61F40E94453624E04E
:102A700030E040E050E00E94B336FB013196F98728
:102A8000E88728853985215031092430310508F03F
:102A9000E3C14885598541705527888599850297F6
:102AA000849F902D112421703327488559854350E8
:102AB0005109249F802D1124D101FC904F2D50E00D
:102AC0009A01290F311D97FD3A95609139016217DE
:102AD000130609F031C3D301EC91682F082E000CC6
:102AE000770B6E0F711DE0913A01E617170609F09A
:102AF00023C3EA81FB81EF2B09F0AEC1D801EC9131
:102B0000EF71E983B7E0EB9FF00111249F01275A91
:102B1000384F6901F9013396E49080913F01880FA5
:102B2000E81A80914901880FE81A0E94453624E688
:102B300030E040E050E00E94B3366E8361E084E014
:102B40000E945B0AF82E8823A9F0682F6150770B4A
:102B500025E0269FD001279FB00D1124A952BD4F1B
:102B6000EC91EF70F0E0EE5AF84F849112969C9140
:102B7000F82EF90E7E817E1508F06EC1F6013296B0
:102B800024913197649130E050E040E070E090E0B3
:102B900080E00E94FE0B9B01AC016F2D7DEF760360
:102BA000D0011124AC59BF4F0E94DD3624E630E03D
:102BB00040E050E00E94B336E22E8FE20E94C31341
:102BC00069816C5F8E2DE7FC80E00E94D509D201FF
:102BD0008C9183FF41C1E981E550E23108F03CC1AD
:102BE000F0E0EB50FA4E0C944437021739172C17CB
:102BF0002C1755172C172C1792179C172C17C61724
:102C00002C17D1172C172C172C172C174318893178
:102C100009F03FC0FF24F394E12C65E08F2D0E9462
:102C2000F90997FF02C081509F4F892F990F990B87
:102C3000FC01E05DFB4F80818F71893109F4E394E1
:102C4000F394B5E0FB12E9CFEE2019F10E9445366E
:102C500022E030E040E050E00E94B336672B682B62
:102C6000692BB9F48AE20E94C31383E10E945609DA
:102C700080913F0166E170E0681B7109072E000C2E
:102C8000880B990B0E94E40B862F63E00E94D50904
:102C9000DCCEF8018081805E803280F1F1E0F98342
:102CA000D1018C9160913901F3019081681748F549
:102CB000F9814F2FFF0F550B282F30E0241B350BC8
:102CC000A92FB0E073E0220F331F7A95E1F7F901E5
:102CD000E759FC4FEA0FFB1F7081711112C0215D93
:102CE0003D4FA20FB31F2C9121502E3B50F422E0F8
:102CF00030E0241B350B39872887A7CE2FEF298397
:102D0000CFCF30913A013E83391710F54981E42F36
:102D1000440FFF0B492F50E04E1B5F0B78E0879F5D
:102D200090011124D901A759BC4FA40FB51F7C9164
:102D300071110EC0215D3D4F240F351FD9012C911B
:102D400021502E3B28F423E030E02E1B3F0BD3CF45
:102D5000861708F53981632F330F770B9B01280FF6
:102D6000311D492F50E0F3E0220F331FFA95E1F7B0
:102D7000F901E759FC4FE40FF51FE081E1110BC0A9
:102D8000215D3D4F240F351FD9012C912150FB01AE
:102D900032962E3B18F1FE819F1718F52981022EDD
:102DA000000C330B39872887290F311D48E0849F99
:102DB000C0011124FC01E759FC4FE20FF31F4081D1
:102DC00041110FC0815D9D4F280F391FD9018C9192
:102DD00081508E3B30F4E885F9853396F987E88792
:102DE00034CE0E94453624E030E040E050E00E94BE
:102DF000B3369B012F5F3F4F7ECF65E070E0798750
:102E0000688723CE0E944536A50194010E94B336FF
:102E1000672B682B692B01F58DE00E9456090E94F3
:102E20004536A50194010E94B3366C5F609344015E
:102E30000E94453624E130E040E050E00E94B33685
:102E4000672B682B692B29F461E080914F010E9468
:102E5000D50981E20E94C3132A813B812F5F3F4F36
:102E60003B832A836C817D81261737070CF4A8CD1C
:102E700065CD80913D01843078F385E00E94700A31
:102E80008111EACF0E944536A50194010E94B33614
:102E9000672B682B692B01F78EE00E945609809101
:102EA0003D01815080933D01D4CF80914B019091A1
:102EB0004C01A0914D01B0914E01C397A105B10500
:102EC0005CF20E9445362AE030E040E050E00E948B
:102ED000B336672B682B692B09F4BECF8FE00E94B5
:102EE0005609C0904B01D0904C01E0904D01F090FC
:102EF0004E010E94453622E330E040E050E00E945F
:102F0000B336C61AD70AE80AF90AC0924B01D09222
:102F10004C01E0924D01F0924E01F8018081805405
:102F2000808397CF61E084E00E945B0A0E94AC0A34
:102F300080E10E9456098DCF0E94453622E030E0A4
:102F400040E050E00E94B336672B682B692B09F0F4
:102F500083CF0E94453624E130E040E050E00E94FB
:102F6000B336F62E25E0629FF0011124E952FD4FA1
:102F7000848184FD71CF8FE00E9456098F2D0E94BD
:102F8000A707D8018C9180548C9363CF809147011F
:102F9000811162CF81E10E945609B1E0B0934801EE
:102FA00058CF80913F01863008F456CF0E944536B5
:102FB000A50194010E94B336672B682B692B09F099
:102FC0004BCF84E10E9456096091630170916401C6
:102FD000809165019091660122E030E040E050E090
:102FE0000E94B336209363013093640140936501DE
:102FF000509366012150310941095109209357012D
:10300000309358014093590150935A0180913F01E8
:10301000815080933F01C0905301D0905401E090C3
:103020005501F0905601E3E0CE1AD108E108F1080D
:103030000E94453627E030E040E050E00E94B33681
:10304000C61AD70AE80AF90AC0925301D09254016D
:10305000E0925501F092560180914F0190915001FC
:10306000A0915101B0915201C816D906EA06FB069B
:103070000CF0EFCEC0924F01D0925001E09251017E
:10308000F0925201E6CE0E9445362AE030E040E060
:1030900050E00E94B33664307105810591050CF053
:1030A000DBCE85E10E9456090E94453623E030E0E0
:1030B00040E050E00E94B336F62E60FF2DC08091B4
:1030C0004F0190915001A0915101B09152018A306D
:1030D0009105A105B1050CF4BCCE0197A109B10978
:1030E00080934F0190935001A0935101B0935201EE
:1030F0008091530190915401A0915501B0915601D6
:103100000197A109B1098093530190935401A093B1
:103110005501B09356019DCE85E00E94700A9091B2
:103120003D01882311F0963018F0915090933D01A5
:10313000FF2009F48ECEC3CFD8016C916F716F3030
:1031400009F48ACE2531310508F086CEF301E080FE
:10315000AE2DB0E0BD01680F711D87FD7A95683016
:10316000710508F079CEE3E0220F331FEA95E1F70D
:10317000F901E759FC4FE60FF71FE081E1116CCE32
:10318000215D3D4F620F731FFB01208121502E3BBB
:1031900008F062CE23E0440F551F2A95E1F7475906
:1031A0005C4FA40FB51F1C929F0DD1019C938E0DF7
:1031B000F3018083F8E09F9F9001112427593C4F31
:1031C000280F311DEF81D901EC9346CEBF92CF92EB
:1031D000DF92EF92FF920F931F93CF93DF93962F7F
:1031E000E82FF0E0DF01AC51BE4F3C91EF5CFB4FAC
:1031F000431708F46BC088E0289FD0011124A75919
:10320000BC4FA00FB11D1C921082C0905701D090EE
:103210005801E0905901F0905A0187E0689FE00161
:103220001124C75AD84FFE013496663108F43CC0C9
:10323000A49184E6A89FA0011124052E000C660B22
:10324000770B4C0D5D1D6E1D7F1D409357015093F4
:1032500058016093590170935A01122FB92E0E94A0
:103260004536FE013596E491CE2ED12CF12CE12C81
:1032700024E630E040E050E00E94B3366C157D0556
:103280008E059F055CF589E041E0B81240E0602FB3
:10329000812FDF91CF911F910F91FF90EF90DF90E1
:1032A000CF90BF900C940A10A491CA0ED11CE11CBF
:1032B000F11CC0925701D0925801E0925901F0924E
:1032C0005A016F3051F610924801C7CF341B3C931E
:1032D0008081803418F08F71805E8083DF91CF9180
:1032E0001F910F91FF90EF90DF90CF90BF900895C6
:1032F000FF920F931F93CF93DF93D82FC62FF42EF7
:10330000022F1FEF160F6AE2812F0E949213ED2FFA
:10331000F0E0EF5FFE4FE2A5E93040F5F0E0EB565C
:10332000F64E6C2F70E00C9444379E19BC19C719E7
:10333000CD19D319E319ED19F419041A6150710963
:10334000FB01EF5CFB4F1082FB01EF5DFB4F8081C7
:103350006F5E7B4FFB012081F8E08F9FC00111243D
:1033600087599C4F820F911DFC011082DF91CF91F4
:103370001F910F91FF900895FB01E85AFC4F808147
:1033800087FF03C08F778083F1CF8460FCCFFB0180
:10339000E85AFC4F80818062F6CFFB01E85AFC4F6F
:1033A00080818064F0CFEB01C05DDB4F1881107E1F
:1033B0000E9445362AE130E040E050E00E94B336FA
:1033C000160F1883D3CFFB01E85AFC4F808182FF90
:1033D00002C08B7FD8CF8068D6CFFB01E05DFB4F6A
:1033E00080818F718058CFCF80913F01482F440F4B
:1033F000440F480F605D7B4FFB0160816F712F2D83
:10340000812F0E94E618B2CFFB01E85AFC4F808161
:10341000877FB9CF5F926F927F928F929F92AF9288
:10342000BF92CF92DF92EF92FF920F931F93CF93B1
:10343000DF93E82EC62E942E0E94453628E030E019
:1034400040E050E00E94B336E0913901C0913A016A
:10345000D0E078E0E79FF0011124DF01A759BC4FCD
:10346000AC0FBD1F8FEF8C9310E000E0662E712C27
:1034700069E0A62EB12C73E0872EF12CD12C81E0CF
:10348000592C5826C301800F911FB5010E94303777
:10349000482F682D0E94223791509701290F311D26
:1034A00097FD3A958150D601A80FB11D87FDBA95B9
:1034B000CD0153E0220F331F5A95E1F7D901A15DE9
:1034C000BD4FA80FB91F5C915150583C68F5D90108
:1034D000AA5EBA4FA80FB91F6C91569EB001112475
:1034E000672B11F527593C4F280F391FD9018C91B3
:1034F000989EC0011124892BB9F481E0840FE7590B
:10350000FC4FCE0FDF1F1882DF91CF911F910F91DB
:10351000FF90EF90DF90CF90BF90AF909F908F90F3
:103520007F906F905F9008950F5F1F4F09301105D6
:1035300009F0A8CF80E0E3CFBF92CF92DF92EF9265
:10354000FF920F931F93CF93DF93F42E122FC82F68
:10355000D0E0C62ED12CFE0123E0EE0FFF1F2A95EE
:10356000E1F7EA5EFA4FEC0DFD1D9081992381F0A1
:1035700040E00E940A1AB82E81110CC0DF91CF9151
:103580001F910F91FF90EF90DF90CF90BF90089523
:1035900095E0B92E0E94B907E82F8B2DBB0C990B33
:1035A000019763E070E00E943037C80FD91F83E0B5
:1035B000CC0FDD1F8A95E1F7C25FDA4FCC0DDD1D20
:1035C000C60FD71F219781E08E0F888385E0E89F83
:1035D000F0011124E25BFB4FF08281E081831283D2
:1035E0000383E482CBCF2F923F924F925F926F92F0
:1035F0007F928F929F92AF92BF92CF92DF92EF9283
:10360000FF920F931F93CF93DF9300D01F92CDB7FC
:10361000DEB7482E512C33243394882E912C88E029
:1036200084198983642C6324712C0E94390530929B
:10363000C3093092C2092FEF2093C40931E043122D
:1036400004C080EC95E00E940207B40190E080E0A5
:103650000E94D0078EE30E94FD06052D10E0E09049
:103660003B01C801089688199909E816190614F053
:10367000E980E50C55E0559EA001112449525D4FAB
:103680005B834A835801CC24C394D12CF12CAE1413
:10369000BF040CF0ACC0B6016619770981E090E078
:1036A0000E94D007AA81BB8114968C91149783FD48
:1036B00063C0EC91E295EF70E150FF0BE85EF74FCD
:1036C00084910E94FD0680E20E94FD06EA81FB8152
:1036D000848187FF06C081810E94AD0B80E20E9439
:1036E000FD06AA81BB819C91892F82958F70692FDD
:1036F0006F7040E0903588F0282F2550330BF9018A
:10370000EE0FFF1FEF52FE4F40815181062E02C087
:10371000569547950A94E2F741700E9411098091ED
:10372000F4019091F5010E940207AA81BB811496D1
:103730008C91149785FF3AC08C9190ED980F903141
:10374000E8F48BE50E94FD06EA81FB818281082E68
:10375000000C990B0E94DE0B8CE20E94FD06AA81F0
:10376000BB8113968C91082E000C990B0E94DE0BE6
:103770008DE50E94FD061AC08BE7A3CF90EC980F51
:10378000903120F090E8980F903138F48BE50E944A
:10379000FD06EA81FB818281E6CF8057803130F4DB
:1037A000AA81BB8112968C918111F0CFAA81BB8135
:1037B00014968C9184FF04C08DEB95E00E94020763
:1037C000EA81FB8184818274823421F48AEB95E062
:1037D0000E940207FFEFAF1ABF0A2A813B812B5FCD
:1037E0003F4F3B832A833FEFC31AD30A50CF0E9437
:1037F00085050E94A509823029F4552009F415CFCA
:103800005A9413CF843051F480913B018150990B2D
:10381000081719070CF009CF539407CF853009F02A
:10382000E8C641105DC047E04093C3094093C20918
:103830004093C40988E096E00E94020757E0509345
:10384000C3095093C2098FE08093C40988EF95E0C3
:103850000E94020767E06093C3096093C20987E191
:103860008093C40988EE95E00E94020777E0709388
:10387000C3097093C2098FE18093C40988ED95E074
:103880000E94020787E08093C3098093C209809356
:10389000C4098EE30E94FD060E9485050E94A509C9
:1038A0008430A9F1C8F48230C9F74420B9F3642DFB
:1038B00070E06F5F7F4F81E090E00E94D00780E270
:1038C0000E94FD064A94642D70E06F5F7F4F81E097
:1038D00090E00E94D007DDCF853081F18630F1F68F
:1038E000852D0F900F900F90DF91CF911F910F9129
:1038F000FF90EF90DF90CF90BF90AF909F908F9010
:103900007F906F905F904F903F902F90089591E03F
:10391000941520F2A42DB0E0BB83AA83BD016F5F94
:103920007F4F81E090E00E94D00780E20E94FD0678
:1039300043946A817B816E5F7F4FC9CF411097C3EB
:1039400090914401911151C6809FF001819FF00D2B
:103950001124E952FD4FB0818B2F82958F70BF707B
:10396000B983823009F06AC08181815081838111DD
:1039700003C0852D0E94A707E981E11159C00E946B
:10398000453623E030E040E050E00E94B336672B3C
:10399000682B692B09F04CC087E00E945609809182
:1039A000570190915801A0915901B0915A01029686
:1039B000A11DB11D8093570190935801A093590107
:1039C000B0935A0160915F01709160018091610133
:1039D0009091620123E030E040E050E00E94B33675
:1039E00069017A016CE2C60E61E0D61EE11CF11C91
:1039F0007981C70ED11CE11CF11C0E94453622E3DF
:103A000030E040E050E00E94B336C60ED71EE81EFC
:103A1000F91EC0925F01D0926001E0926101F092C4
:103A200062010E944D070E94DF130E94BB0D58CF18
:103A300088E00E945609F2E3F983C4CF833021F471
:103A4000852D0E94030BEDCF8430D1F3853009F032
:103A500016C18981082F10E081E090E0A0E0B0E07D
:103A6000098004C0880F991FAA1FBB1F0A94D2F7B0
:103A70002091D1013091D201822B932B9093D201CE
:103A80008093D101818181508183811103C0852D73
:103A90000E94A707F801EF5FFE4FE081EE30F8F4D7
:103AA000F0E0EB5AF24E0C944437631D751D7A1DFD
:103AB000B81DDA1DF11D021E061E0A1E0E1E2D1E49
:103AC000311E371E3B1E90913D0181E0890F2091F0
:103AD0003E0180933D01921302C080933E0141E07C
:103AE000698185E00E9411099CCF80913E018093FD
:103AF0003D01F5CF60914F017091500180915101CE
:103B0000909152010091530110915401209155015F
:103B1000309156016017710782079307B1F4DC01F9
:103B2000CB010196A11DB11D80934F0190935001CF
:103B3000A0935101B093520180935301909354018B
:103B4000A0935501B0935601CACF600F711F821F19
:103B5000931F22E030E040E050E00E94B336209313
:103B60004F01309350014093510150935201B7CF10
:103B700080914F0190915001A0915101B09152015B
:103B8000409153015091540160915501709156013B
:103B900084179507A607B70721F40296A11DB11D4A
:103BA000C3CF40934F0150935001609351017093E4
:103BB000520195CF90913D019A83943078F00E9404
:103BC0004536AA81A150AA8323E030E040E050E0CE
:103BD0000E94B336BA81B61BB0933D0110924201E8
:103BE0007ECF8091630190916401A0916501B091B5
:103BF00066018093570190935801A0935901B093A7
:103C00005A016DCF82E38093410169CF82E38093B3
:103C1000420165CF81E08093450161CF06E1E02E4E
:103C200005E0F02E1A8210E000E0F701E00FF11F2E
:103C30008081882321F0602F8A810E94F3080F5F22
:103C40001F4F0830110589F7E8E0EE0EF11CFA81EC
:103C5000FF5FFA83F53139F742CF8AE08093400164
:103C60003ECF109248018EE18093470138CF84E126
:103C70008093430134CF81E08093460130CF86307A
:103C800009F096C18091410181115EC42981E22E23
:103C9000F12C81E090E0A0E0B0E004C0880F991F13
:103CA000AA1FBB1F2A95D2F72091D3013091D401CE
:103CB000822B932B9093D4018093D30185E0809F36
:103CC000F001819FF00D1124E952FD4F8181815057
:103CD0008183811103C0852D0E94A70787010F5F93
:103CE0001E4FD8011E96EC91EC3008F036C0F0E083
:103CF000E458F14E0C944437991EB31EE81E161F6B
:103D00002D1F641F671FAD1E881E6B1FA21FB21FD1
:103D100040913B0150E0E7EDF2E090E080E0841755
:103D200095070CF051C024812F7B24830196359692
:103D3000F6CF61E084E00E945B0A882309F444C066
:103D40008150990B25E0289FF001299FF00D112447
:103D5000E952FD4F848188608483F8018685843030
:103D600009F45FCE31C080913901B8E08B9F90019A
:103D7000112480913A01820F932F911D4EEF5FEF36
:103D800087599C4FDA0113E0AA0FBB1F1A95E1F780
:103D9000A80FB91F6EEF7FEFFD01E60FF71FE0815F
:103DA000EE2341F0E150FF0BEF5CFB4F20812F71C0
:103DB000205820836F5F7F4F6330710569F74F5F35
:103DC0005F4F43305105F1F641E0698186E08ACECC
:103DD00061E083E00E945B0A8823B1F38150990B74
:103DE00045E0489F9001499F300D1124F901E952A7
:103DF000FD4F7F0184818F7B84830E94453622E0C2
:103E000030E040E050E00E94B336672B682B692B0E
:103E100041F4D70112968C9112978F5F12968C9372
:103E20009CCFF70183818F5F838397CF61E084E02C
:103E30000E945B0A882341F28150990B25E0289F5C
:103E4000F001299FF00D1124E952FD4F84818F7BF1
:103E5000848382818F5F828380CF81E00E94F31A06
:103E600025E0829FF0011124E952FD4F8481826296
:103E700084839081692F6F70892F82958F70903520
:103E800020F440E00E94110968CF482F4550550B9F
:103E9000FA01EE0FFF1FEF52FE4FC12CD12C76011D
:103EA000C394062E04C0CC0CDD1CEE1CFF1C0A942F
:103EB000D2F7208131812C293D29318320839059EB
:103EC0009031F8F241E0DECF0E94570D46CF85E0F9
:103ED0008093440142CF81E394E0FC0121912111C0
:103EE00002C02E2E281A54E0E134F507B9F741E05C
:103EF00060913A01809139010E940A1A90E000977E
:103F000009F42BCF0197622D6150770BFB012091B3
:103F10003901215063E070E00E943037820FDF01E9
:103F2000AF5DBB4F8C9340913A014150460FEF5E1D
:103F3000FB4F4083682F8FEF820D0E9410120E946A
:103F4000DE120BCFE1E3F4E021E434E08191882339
:103F500029F0DF0111978F71805E8C932E173F0738
:103F6000A9F732CF7FE2A72E72E0B72E1A82750131
:103F7000D12CF701808191EE980F9C3410F4805B76
:103F800080837FEFE71AF70A8081882321F06D2D67
:103F90008A810E94F308D39488E0D812EACF9A81EC
:103FA0009F5F9A83A8E0AA0EB11C953101F7D5CE88
:103FB0008730B9F481E090E0A0E0B0E0098004C06F
:103FC000880F991FAA1FBB1F0A94D2F72091D50111
:103FD0003091D601822B932B9093D6018093D501FB
:103FE0002FCD883009F01DCD81E090E0A0E0B0E059
:103FF000098004C0880F991FAA1FBB1F0A94D2F71B
:104000002091D7013091D801822B932B9093D80126
:104010008093D70185E0809FF001819FF00D1124EE
:10402000E952FD4F82811816F4F4815082830E9478
:10403000691364E10E94F909FC0197FF02C0E15095
:10404000FF4F60E071E00E94303765E170E00E9450
:104050003037262FFF2309F4E4CC482F6F2F8981B6
:104060000E947819DECCF0913401F983E0CF21E091
:10407000421232C2909144019111B7C2809FF00167
:10408000819FF00D1124E952FD4F848184FF0AC005
:10409000908120ED290F203108F01CC29F709430D0
:1040A00008F418C286FF0DC035E0309FF001319F43
:1040B000F00D1124E952FD4F90819053903108F496
:1040C000E5C10E946913898361E083E00E945B0A75
:1040D000882379F08150990B25E0289FF001299FD2
:1040E000F00D1124E952FD4F80818F7064E183301F
:1040F00019F060913D01669589810E94F9097C0162
:1041000085E0809FA001819F500D112449525D4F91
:104110005B834A83FA01A9EDB1E001900D928A9583
:10412000E1F781E08093DA01DA0111968C91119721
:10413000815011968C93811103C0852D0E94A70791
:10414000C701F7FE02C081509F4F9A83B92FBB0F62
:10415000BB0BBB83A92EC70160E071E00E94303722
:1041600065E170E00E943037F62E182F4091D9019A
:10417000A1100BC0E090DD010091DC012091DB017A
:104180006F2D812F0E949C1A9AC080ED840FDD2430
:10419000D394803160F44F70E42FF0E0EE0FFF1FF6
:1041A000E853FA4FE4918091DB01DE2ED80E0E9495
:1041B000453624E630E040E050E00E94B336E62E7B
:1041C00080913F01880F885D6D2D660F6D0DC82EA3
:1041D000C60E61E083E00E945B0A8150990B25E0E6
:1041E000289FF001299FF00D1124E952FD4F908185
:1041F0004091D901292F24272F7029F0453361F4EC
:104200009F70933049F4E4E0CE9EC001112463E036
:1042100070E00E943037C62EEC1408F0ABCFEE24CD
:10422000EA94EA0C6FE28E2D0E9492130091D9015C
:1042300080ED800FB12C803158F4E02FEF70F0E06A
:10424000EE0FFF1FE753FA4FE491B090DC01BE0E72
:1042500080EB800F803108F058C061E28E2D0E9403
:1042600092130F70E02FF0E0EF5FFE4FE081ED3032
:1042700030F5F0E0E25CFE4D0C9444374B215F21B9
:104280004B214B2157214B2166215F215F215F216B
:1042900072215F217A212A812150330B2C513E4F0C
:1042A0003B832A83D9018C91865F8C9308C0EA8175
:1042B000E150FF0BEC51FE4F8081869580830E9478
:1042C000DF130E94BB0D0E944D070ACB2A812150AB
:1042D000330B2F5C3B4F3B832A83D9018C918F7129
:1042E000805CE3CFEA81E150FF0BE75AFC4F80810D
:1042F0008062E4CF2A812150330B275A3C4F3B8305
:104300002A83D9018C918068D0CF80E8800F8031DA
:1043100008F485C08091D9018053803108F095C0A0
:104320002D2D0D2C000C330BAB2DBB0CBB0B0E94A9
:104330004A379B01AC016D2DDD0C770B880B990B77
:104340000E94FE0B4B015C0190913D0180914A015E
:10435000890F0E942107282FC501B401660F771F1E
:10436000881F991F822E912C880C991C092C000CF7
:10437000AA08BB08680D791D8A1D9B1D8090490104
:10438000082C000C9908AA08BB08680D791D8A1D25
:104390009B1D20913F01620F711D811D911D6F5F5B
:1043A0007F4F8F4F9F4F22E030E040E050E00E946F
:1043B000B336D22E61E083E00E945B0A8150990BF4
:1043C00025E0289FF001299FF00D1124E952FD4FAF
:1043D00080812091D901982F92279F7029F0253351
:1043E00069F48F70833051F4FD2D24E0F202C00196
:1043F000112463E070E00E943037D62E4A815B8141
:104400005527405D5B4FDA016C9162956695677048
:104410000F2D212F4D2D8E2D0E94E61850CF0E947A
:10442000453624E030E040E050E00E94B336672B90
:10443000682B692B09F46ECF8091D9012F2D412F64
:104440006A2D8F700E9478193ACF90913D0180912A
:104450004A01890F0E9421078150990B9C01220F6C
:10446000331F80914901F901E80FF11D87FDFA958D
:1044700020913F012E0F3F2F311D2F5F3F4F37FF00
:1044800002C02F5F3F4F3595279593CF826084837D
:1044900061E083E00E945B0A882369F08150990BF8
:1044A000B5E0B89FF001B99FF00D1124E952FD4F1E
:1044B00084818F7E848385E0809FF001819FF00D51
:1044C0001124E952FD4F84818061848389E00E9438
:1044D0005609F5CE8CE0FBCFE2E04E12DFC9909199
:1044E0004401911182C0809FF001819FF00D112441
:1044F000E952FD4F848184FD76C0208130E0EFE0F9
:10450000F1E08191873021F09F5F9C30D1F790E0FE
:1045100040913901F0913A01EF2EF12C892F90E072
:10452000805A9F4FA8E04A9FB00111247B836A8381
:104530002817390751F5FB01E15DFD4FEE0DFF1D19
:1045400080818B50863020F481E00E94560969CA30
:1045500085E0809FF001819FF00D1124E952FD4F0D
:10456000818181508183811103C0852D0E94A7071D
:10457000EA81FB81E15DFD4FEE0DFF1D80816AE068
:104580000E941637925490834CCA2A813B812A5E3E
:104590003A4F2E0D3F1D3B832A83D9018C918823EE
:1045A00011F083E0D2CF0E94B907883211F484E081
:1045B000CCCF91E0980FEA81FB81908395E0989FA2
:1045C000D0011124A25BBB4F909FF001919FF00D91
:1045D0001124E952FD4F01900D929A95E1F7852D36
:1045E0000E94A7071ECA8CE0B0CF86E10E94560940
:1045F00077C9863009F474C90C94151BCF93DF93E7
:1046000088EAE9E6F3E0DF01482F1D924A95E9F7D1
:10461000E6E1F5E0DF011D928A95E9F7E6EFF1E0CA
:1046200088E1DF011D928A95E9F7EEE4F4E088EC79
:10463000DF011D928A95E9F7E1E2F4E021E134E03F
:1046400081E394E0C4EED1E069E573E01192D90111
:104650001D929D01DC011D92CD011992DB011D927D
:10466000BD01B4E0E133FB0789F7DF91CF910895F5
:104670002F923F924F925F926F927F928F929F9272
:10468000AF92BF92CF92DF92EF92FF920F931F9360
:10469000CF93DF93CDB7DEB7EB970FB6F894DEBFBD
:1046A0000FBECDBFEFE2F2E088EADF011D928A95EE
:1046B000E9F7E6E0FE2EFE01B096FCA7EBA72F2D52
:1046C00011922A95E9F7CE014A969EA78DA7DC01A3
:1046D000EF2D1D92EA95E9F79E012C5E3F4F38AB16
:1046E0002FA7D901EF2D1D92EA95E9F72650310940
:1046F0003AAB29ABD901EF2D1D92EA95E9F71AA63D
:1047000019A687E0E8E7F1E0DE01119601900D922D
:104710008A95E1F780917F0190918001A0918101BC
:104720008EA39FA3A8A78E01085F1F4FD801EF2D6E
:104730001D92EA95E9F71092280210922902109230
:104740002A0210922B0210922C0210922D028091BC
:104750003C01853008F458C10E94453624E130E020
:1047600040E050E00E94B336672B682B692B09F0BC
:104770004BC181E080932E02809328028093220215
:104780008093160283E180931C02F092100209ECE0
:1047900027E044E160E080E00E94C70C03ED26E0E2
:1047A00044E161E080E00E94C70C01E026E043E1C3
:1047B00061E081E00E94C70C80912E0210E000E0D1
:1047C000811113C00E94453623E030E040E050E004
:1047D0000E94B3368B01000F111FF801E85DFD4FF9
:1047E0008081811102C00F5F1F4FF801EE5DFD4F08
:1047F000C080F801E45EFD4F6081062E000C770B4F
:104800006C197109C7FC73956F5F7F4F072E000C01
:10481000880B990B0E94E40B0C2C000CDD08EE08B1
:10482000FF08C60ED71EE81EF91EF801EA5EFD4F0E
:104830008080F801E05FFD4F6081062E000C770B51
:104840006819710987FC73956F5F7F4F072E000C05
:10485000880B990B0E94E40B082C000C9908AA08FD
:10486000BB08DC01CB01880D991DAA1DBB1DB6013B
:1048700023E0660F771F2A95E1F7615D7D4F680F92
:10488000791F055FDB010C930EED11E034EEE32E92
:1048900031E0F32E45E0842E912CA12CB12CDD24A7
:1048A000D3940E944536A50194010E94B336672B2C
:1048B000682B692B09F0DBC4F801D0820F5F1F4F12
:1048C000E016F10671F70E94FE220E94570DE1E307
:1048D0008E2EE4E09E2EF1E2AF2EF4E0BF2EA1E199
:1048E0006A2EA4E07A2E6301B7E0EB2E13E0212EAE
:1048F000312C412C512C80912E028E9DC00111240F
:104900000896960121513440821793070CF4B8C4DD
:104910000E944536A20191010E94B336672B682B95
:10492000692B09F0AAC480912E0210E000E08111E9
:1049300009C00E944536A20191010E94B3368B0145
:10494000000F111FF801E85DFD4F8081811102C049
:104950000F5F1F4FF801EE5DFD4FF080F801E45E40
:10496000FD4F6081062E000C770B6F197109F7FC63
:1049700073956F5F7F4F072E000C880B990B0E9479
:10498000E40BF60EF501F082F801EA5EFD4FF080CF
:10499000F801E05FFD4F6081062E000C770B6F1968
:1049A0007109F7FC73956F5F7F4F072E000C880B22
:1049B000990B0E94E40B4F2D460FD6014C93F50145
:1049C000608180913901681709F454C480913A01DB
:1049D000481709F44FC428E0629FF0011124E759F9
:1049E000FC4FE40FF11D8081811144C48C2D861988
:1049F0000E941012FFEF8F1A9F0A2FEFA21AB20A1D
:104A00003FEFC31AD30A77CF10922E0227E030E08F
:104A10003CAB2BAB73E0C72ED12CE12CF12C0E94C8
:104A20004536A70196010E94B336E6E2F0E0EC0FAE
:104A3000FD1FE60FF71F80818F5F80838BA99CA9E4
:104A400001979CAB8BAB892B51F79EA199A78FA1A6
:104A5000890F21E0280F2AA72FEF290F29879F5FB1
:104A60009A878B878E5F8C8784E18D871EAB0DAB19
:104A7000DE0190966D01FE0174962F019E01265E67
:104A80003F4F1901CE010E963C01A8E2B2E0BBAF48
:104A9000AAAF7D011FAA10E000E066E0862E912CEF
:104AA000A12CB12CEDA9FEA99081D6019C93818106
:104AB000F201808311969C9381830E944536A50163
:104AC00094010E94B3366F5F7F4FD1011C92F301B6
:104AD000608381E0860F11968C9327E02183E1E0CB
:104AE000D701643071050CF4E9C1EC930F5F1F4FDF
:104AF0002DA93EA92E5F3F4F3EAB2DAB32E0C30E3A
:104B0000D11C42E0440E511C82E0280E311C92E080
:104B1000690E711CA2E0EA0EF11C0330110511F6BA
:104B2000BFA9B111E6C10E94453622E030E040E065
:104B300050E00E94B336672B682B692B61F40E940A
:104B4000453624E030E040E050E00E94B3366C0F80
:104B50007D1FFB0111820E94453622E030E040E0DB
:104B600050E00E94B336672B682B692B89F40E94B2
:104B7000453623E030E040E050E00E94B3366C5F01
:104B80007F4F8F4F9F4F6C0F7D1FDB0111961C9243
:104B900048E2642E42E0742E10E000E0D3018D91D3
:104BA0003D01813009F068C0E0E2F0E0EC0FFD1F4C
:104BB000E00FF11F4080E4E1F0E0EC0FFD1FE00F9B
:104BC000F11FC080C418DD08B60162507109072EBC
:104BD000000C880B990B0E94E40B4B01B2E08B0E8A
:104BE000911CEAE1F0E0EC0FFD1FE00FF11F508097
:104BF000EEE0F0E0EC0FFD1FE00FF11FE080E518A4
:104C0000FF08B70162507109072E000C880B990B41
:104C10000E94E40B5B01E2E0AE0EB11CB601681924
:104C20007909072E000C880B990B0E94E40B980160
:104C30002E5D3D4F69014394640DD9016C93B7011A
:104C40006A197B09072E000C880B990B0E94E40B54
:104C50005394560EF801EA5EFD4F5082F801E45E6F
:104C6000FD4FD6016C916150860E8082F801E05FA5
:104C7000FD4F5A94A50CA0820F5F1F4F06301105FF
:104C800009F08CCF22E2A22E22E0B22E3CE1C32E0C
:104C900032E0D32E76018501E8E2F2E0FEABEDAB27
:104CA000ADA9BEA98D91BEABADAB81114BC0EAE100
:104CB000F0E0EC0FFD1F2BA93CA9E20FF31F3080A1
:104CC000EEE0F0E0EC0FFD1FE20FF31F4080431811
:104CD00055083FEF431A530A052C000C6608770865
:104CE0008BA99CA98A5E9D4F4C01ABA9BCA9A05F72
:104CF000BD4FB9AFA8AFF80120FD4FC12180D7014A
:104D000011966C91062E000C770B6219710927FC25
:104D100073956F5F7F4F072E000C880B990B0E94D5
:104D2000E40B260EF8012082C301B2010E94E40BBD
:104D3000360ED4013C92F8018081D7018C93E8AD06
:104D4000F9AD3082EBA9FCA93196FCABEBAB0F5F60
:104D50001F4FFFEFEF1AFF0A2BA93CA926303105A0
:104D600009F09ECF06E1802E02E0902E80E1E82E31
:104D700082E0F82E19EC98E0792EAAADBBAD9D919A
:104D8000BBAFAAAFF5018081D4016C91913009F0DD
:104D90002AC1F70120812F5FD6014C914F5F6150EE
:104DA000012F81500E94C70CF60140814F5FD50151
:104DB0008C910AE0010FF7012081D4016C918150A0
:104DC0000E94C70C08E3010FF7012081D6014C9126
:104DD000F4016081D5018C910E94C70CEFEFAE1AEF
:104DE000BE0AFFEF8F1A9F0A2FEFE21AF20A3FEF77
:104DF000C31AD30A1F5F1F3C09F0BFCFCE01019633
:104E00009CAB8BAB30E020E012E0412E512C612CAA
:104E1000712CABA9BCA98D91BCABABAB4901BFEF69
:104E20008B1A9B0A813009F098C1C90163E070E0D8
:104E30000E943037892B09F0E2C0F62EFF0C8F2D2F
:104E400090E09C012F5F3F4FFC01E05FFD4FD08061
:104E5000CC24C394CD0CF901EA5EFD4FE080BB2465
:104E6000BA94BE0CFC01E85DFD4F4081413009F071
:104E7000D0C12E5D3D4FD901EC900E9445360C2DDE
:104E800010E0A30192010E94B336B8E0EB9E9001BE
:104E90001124672B682B692B09F0B1C1C901815D11
:104EA0009D4F080F191F65E16F0DF801608362E0E7
:104EB0006D0D08E02B2D4E2D8E2D4DC163307105EB
:104EC000A9F4EC93F1E01196FC93F801EE0FFF1FAB
:104ED000E00FF11F21E030E02C0F3D1FE20FF31F28
:104EE00010828FA98E5F80278FAB00CE1196EC9336
:104EF000FDCDBFA9B130F1F40E94453622E030E08B
:104F000040E050E00E94B336672B682B692B09F014
:104F10003FCE0E94453623E030E040E050E00E9462
:104F2000B3366C5F7F4F8F4F9F4F6C0F7D1FFB0120
:104F300011822ECEFFA9F230B1F40E94453622E054
:104F400030E040E050E00E94B336672B682B692BBD
:104F500009F01ECE0E94453627E030E040E050E0E8
:104F60000E94B33610CEBFA9B43009F011CE0E9412
:104F7000453622E030E040E050E00E94B336672B37
:104F8000682B692B09F004CE0E94453624E030E0FE
:104F900040E050E00E94B336C8CF31972080F7013F
:104FA00031976081062E000C770B6219710927FC7E
:104FB00073956F5F7F4F072E000C880B990B0E9433
:104FC000E40B260ED8012C92C301B2010E94E40B1F
:104FD000360EF4013082D8018C91F7018083A8ADA0
:104FE000B9AD3C92AFCEB8E08B02F0011124E15D87
:104FF000FD4FE60FF11D67FDFA957082EFCEF901C6
:10500000F595E795F595E795FEABEDABDE2EDD0C5E
:10501000C40181709927D80E0D2D10E0F801E45ECF
:10502000FD4F20812AAFF801EA5EFD4FE080F801D4
:10503000E05FFD4F6081062E000C770B6E19710941
:10504000E7FC7395072E000C880B990B0E94E40B6C
:10505000E60EB2E0AB2EAD0CB12CF501EE5DFD4FCE
:10506000C080F501EA5EFD4FF080F501E05FFD4F85
:105070006081062E000C770B6F197109F7FC739590
:10508000072E000C880B990B0E94E40B68AF9AADB9
:105090009F5FF801E85DFD4F80812E2C312C38E0B8
:1050A000939F80011124811108C0015D1D4F200EC6
:1050B000311E88E0D1018C9313C00E944536A301B4
:1050C00092010E94B336015D1D4F200E311E672BE9
:1050D000682B692B09F090C085E18D0DF10180836B
:1050E000B8ADFB0EEF2DF0E0D501A85DBD4F2C91C2
:1050F0008FEF8C0D38E0839FC0011124815D9D4F9F
:10510000E80FF91F88E0222311F087E18D0D8083DD
:10511000E9E2F0E0EC0FFD1F8DA99EA9E80FF91F51
:1051200010814FEF410F08E02E2D6E2D8AAD8E5F5E
:105130000E94C70C4EEF4C0D2F2D6F2D81E0810F7B
:105140000E94C70C2F2D412F6E2DEF1418F008E090
:105150002E2D6F2D812F0E94C70C94012730310511
:1051600009F057CEFFA9F730C1F40E94453622E07E
:1051700030E040E050E00E94B3366C0F7D1FDB0151
:105180009996EC91B8E0EB9FF0011124E15DFD4FA1
:1051900088E082838383848385830FE212E067ED56
:1051A000A62E62E0B62E75E0472E512C612C712C94
:1051B000E4EE9E2EF12CE12C6801CE0CDF1CF601F2
:1051C0008081883061F40E944536A30192010E94DB
:1051D000B336672B682B692B11F4D6019C92BFEF75
:1051E000EB1AFB0AE8E0EE16F10431F7085F1F4FF7
:1051F000A016B106F9F6E0CA87EE8D0D5BCFC901A6
:10520000815D9D4F080F191F6DED6F0DD8016C93D7
:105210004ECE8E5D9D4FFC01D0800E9445360B2DF9
:1052200010E0A30192010E94B336F8E0DF9E9001E6
:105230001124672B682B692B81F4C901815D9D4F77
:10524000080F191F66E16F0DD8016C932EEF2E0D1C
:1052500008E04D2D6C2D8D2D7ECFC901815D9D4FB8
:10526000080F191F6EED6F0DF8016083EFCFD801A5
:105270001C9224CBD4011C92BDCBF4011082BACB7A
:1052800088E292E09CAB8BAB2CE1A22E22E0B22E06
:1052900032E2C32E32E0D32E40E1E42E42E0F42E7F
:1052A00006E112E05EE2452E52E0552E3C0167E039
:1052B000262ED3018D913D018130E1F5912C812C79
:1052C00080912E02829DC0011124029688159905B5
:1052D0008CF1F5012081022E000C330B2F5F3F4F24
:1052E000032E000C440B550BD6016C91062E000CBE
:1052F000770B880B990B0E94FE0B362EF70120814D
:10530000022E000C330B2F5F3F4F032E000C440B7B
:10531000550BD8016C91062E000C770B880B990B5E
:105320000E94FE0B40E0832D0E940A10BFEF8B1AF3
:105330009B0AC6CFEFEFAE1ABE0AFFEFCF1ADF0A05
:105340002FEFE21AF20A0F5F1F4F4614570409F0BD
:10535000B0CF80913C0163E00E941637911144C0A8
:1053600010E000E0ABA9BCA98D91BCABABAB813028
:10537000A9F5F801E45EFD4F2081022E000C330BED
:105380002F5F3F4F032E000C440B550BF801EE5DD1
:10539000FD4F6081062E000C770B880B990B0E9445
:1053A000FE0BF62EF801E05FFD4F2081022E000C6F
:1053B000330B2F5F3F4F032E000C440B550BF801AE
:1053C000EA5EFD4F6081062E000C770B880B990B6F
:1053D0000E94FE0B42E08F2D0E940A100F5F1F4FAC
:1053E0000630110509F0BECF90913C01809100017B
:1053F000981708F472C080913B018150990B25E009
:10540000289FF001299FF00D1124E952FD4F808162
:10541000803909F462C080912E0260E0811109C0D8
:105420000E94453623E030E040E050E00E94B33671
:10543000660FE62FF0E0E85DFD4F8081811101C02D
:105440006F5F062F10E0F801EE5DFD4FF080F80170
:10545000E45EFD4F6081062E000C770B6F19710919
:10546000F7FC73956F5F7F4F072E000C880B990B2D
:105470000E94E40BF60EF801EA5EFD4FE080F801B1
:10548000E05FFD4F6081062E000C770B6E197109ED
:10549000E7FC73956F5F7F4F072E000C880B990B0D
:1054A0000E94E40BE60E0E94B907B8E0FB9EF001F3
:1054B0001124EA5EFA4FEE0DF11D91E0980F9083F2
:1054C00025E0829FF0011124E25BFB4F80E980839D
:1054D00081E08183128213821482EB960FB6F894D6
:1054E000DEBF0FBECDBFDF91CF911F910F91FF9017
:1054F000EF90DF90CF90BF90AF909F908F907F9074
:105500006F905F904F903F902F9008958F929F9251
:10551000AF92BF92CF92DF92EF92FF920F931F93C1
:10552000CF93DF93082F80914001882351F00E9490
:10553000453624E030E040E050E00E94B33601E020
:10554000060F809144018111C6C0DEEFD00F802F7D
:105550008170D89FD02D1124202F2150330BC901E9
:1055600062E070E00E9430370350089F002D112444
:105570001092D001909139014D2F0D2E000C550B3A
:10558000490F511D80913A01E02F002E000CFF0BB6
:10559000E80FF11D9A01B3E0220F331FBA95E1F72E
:1055A000D901A759BC4FAE0FBF1FBC90B110AAC103
:1055B000E830F10508F075C04531510508F071C0BB
:1055C000215D3D4FE20FF31F20812150283C08F060
:1055D00068C020914801211106C0D90FD09339012C
:1055E000080F00933A018DE10E94560990904701FF
:1055F000911057C080913901C0913A010C2F10E0F1
:1056000038E0839FE0011124FE01EA5EFA4FE00FCB
:10561000F11F8081811162C08DE10E945609809145
:105620003901E0913A01F0E058E0859FC001112472
:10563000DC01A15DBD4FAE0FBF1F2C9131EE320FCB
:105640003C3410F4205B2C93815D9D4FE80FF91FD3
:10565000808191E9980F9C3420F56AE00E9416370A
:10566000D82F0E94453622E030E040E050E00E9412
:10567000B336672B682B692B81F48EE50E94C31328
:1056800085EF8D0F823009F424C108F0FFC0882314
:1056900009F409C1813009F40EC18CE08D0F0E941C
:1056A00056090E941C0C0E94BB0D80914301882367
:1056B00021F080915B0180FDBFC1DF91CF911F91EF
:1056C0000F91FF90EF90DF90CF90BF90AF909F90A1
:1056D0008F900C94DF1300E0D0E04ACF8150990BFB
:1056E00025E0289FF001299FF00D1124E25BFB4F7C
:1056F0006081862F82958F706F70893030F485308D
:10570000D8F5813020F0F12C02C08930E1F34F2D23
:105710000E941109CE018A5E9A4F6C01C00ED11E03
:10572000D6018C91E82FE150FF0B9F0195E0929FED
:10573000F001939FF00D1124E25BFB4F90819031BB
:1057400079F5918140914B0150914C0160914D014F
:1057500070914E01490F511D611D711D40934B0108
:1057600050934C0160934D0170934E0181500E9403
:10577000C407D6011C9253CF482F4550550BFA0150
:10578000EE0FFF1FEF52FE4F20813181062E02C027
:10579000369527950A94E2F7522F5170F52EB7CF20
:1057A000848187FF49C077EDE72E72E0F72EB12C98
:1057B000A12CE5E08E2E80913B018A151B04D1F1CE
:1057C000CCF1F6018081482F4150550B849EF001A9
:1057D000859EF00D1124E25BFB4FD7012C91908147
:1057E000291321C012962C911297928129131BC064
:1057F00013962C9113979381291315C014969C919D
:1058000014972481292726FD0EC011969C9111978B
:105810002181920F11969C9381500E94C407F6013A
:10582000108299249394FFEFAF1ABF0A25E0E20E8D
:10583000F11CC1CF9110F3CEA0913B01AA3109F424
:10584000EECECA5EDA4FC00FD11F888195E09A9FD5
:10585000D0011124A952BD4F482F4150550B949FA0
:10586000F001959FF00D1124E25BFB4F01900D922A
:105870009A95E1F781500E94C407188280913B01FC
:105880008F5F80933B010E944D07C9CE843061F148
:1058900040F1853009F001CF61E084E00E945B0AAD
:1058A0000E94AC0AFACE80913C018F5F80933C014C
:1058B0000E943823F2CE0E94453623E030E040E0DB
:1058C00050E00E94B336862F62E08F5F0E94D509B8
:1058D000E4CE809144018111E0CE85E080934401C3
:1058E000DCCE0E94570DD9CEC0913D01C43008F4E2
:1058F000D4CE85E00E94700A8111CFCEC150C093F2
:105900003D01CBCEEB2DF0E0E05DFB4F10818DE152
:105910000E9456090E94453624E630E040E050E0FF
:105920000E94B336E62E61E083E00E945B0AF82E07
:10593000C0E08823F9F08150990BBC0185E0869F77
:10594000D001879FB00D1124A952BD4F4C914F70CB
:1059500050E0440F551FFA01E853FA4F6491129634
:10596000FC901297F60EFA01E653FA4F2491139623
:10597000CC91C20F80913F01880F885D9F2D990FB8
:105980009F0D890FE81608F08CCEBA946FE28B2D2C
:105990000E949213FC9E90011124032E000C440BD4
:1059A000550B6F2D70E090E080E00E94FE0B6B01C4
:1059B0007C0190913D0180914A01890F0E9421074D
:1059C000282F80913A01080F80913901D80FC70123
:1059D000B601660F771F881F991FC22ED12CCC0CE1
:1059E000DD1C0D2C000CEE08FF086C0D7D1D8E1DBE
:1059F0009F1DC09049010C2C000CDD08EE08FF082B
:105A00006C0D7D1D8E1D9F1D20913F01620F711D2C
:105A1000811D911D6F5F7F4F8F4F9F4F22E030E0C0
:105A200040E050E00E94B336422F612F6F712D2F5E
:105A30008B2D0E94E61835CEDF91CF911F910F91EB
:105A4000FF90EF90DF90CF90BF90AF909F908F909E
:105A50000895FF920F931F93CF93DF93EC01F62EDF
:105A600008811981C8010E949D36F81621F06F2D1A
:105A7000C8010E94A536CE01DF91CF911F910F91F1
:105A8000FF9008958F929F92AF92BF92CF92DF9234
:105A9000EF92FF920F931F93CF93DF9300D0CDB778
:105AA000DEB780913C01811103C08FEF80933C01F0
:105AB00080914B0190914C01A0914D01B0914E010C
:105AC0004091B7015091B8016091B9017091BA014C
:105AD000481759076A077B070CF08AC020913C01E0
